{
  "contractName": "Cruds",
  "abi": [
    {
      "inputs": [
        {
          "internalType": "string",
          "name": "",
          "type": "string"
        },
        {
          "internalType": "uint256",
          "name": "",
          "type": "uint256"
        }
      ],
      "name": "accessRequests",
      "outputs": [
        {
          "internalType": "string",
          "name": "doctorCid",
          "type": "string"
        },
        {
          "internalType": "bool",
          "name": "approved",
          "type": "bool"
        }
      ],
      "stateMutability": "view",
      "type": "function",
      "constant": true
    },
    {
      "inputs": [
        {
          "internalType": "address",
          "name": "",
          "type": "address"
        }
      ],
      "name": "latestHashes",
      "outputs": [
        {
          "internalType": "string",
          "name": "",
          "type": "string"
        }
      ],
      "stateMutability": "view",
      "type": "function",
      "constant": true
    },
    {
      "inputs": [
        {
          "internalType": "string",
          "name": "doc_cid",
          "type": "string"
        }
      ],
      "name": "addDoctor",
      "outputs": [],
      "stateMutability": "nonpayable",
      "type": "function"
    },
    {
      "inputs": [],
      "name": "getDoctor",
      "outputs": [
        {
          "internalType": "string[]",
          "name": "",
          "type": "string[]"
        }
      ],
      "stateMutability": "view",
      "type": "function",
      "constant": true
    },
    {
      "inputs": [
        {
          "internalType": "string",
          "name": "patient_cid",
          "type": "string"
        }
      ],
      "name": "addPatient",
      "outputs": [],
      "stateMutability": "nonpayable",
      "type": "function"
    },
    {
      "inputs": [],
      "name": "getPatient",
      "outputs": [
        {
          "internalType": "string[]",
          "name": "",
          "type": "string[]"
        }
      ],
      "stateMutability": "view",
      "type": "function",
      "constant": true
    },
    {
      "inputs": [
        {
          "internalType": "string",
          "name": "patientCid",
          "type": "string"
        },
        {
          "internalType": "string",
          "name": "doctorCid",
          "type": "string"
        }
      ],
      "name": "requestAccess",
      "outputs": [],
      "stateMutability": "nonpayable",
      "type": "function"
    },
    {
      "inputs": [
        {
          "internalType": "string",
          "name": "patientCid",
          "type": "string"
        },
        {
          "internalType": "string",
          "name": "doctorCid",
          "type": "string"
        },
        {
          "internalType": "bool",
          "name": "approve",
          "type": "bool"
        }
      ],
      "name": "respondToAccessRequest",
      "outputs": [],
      "stateMutability": "nonpayable",
      "type": "function"
    },
    {
      "inputs": [
        {
          "internalType": "address",
          "name": "doctorAddress",
          "type": "address"
        },
        {
          "internalType": "string",
          "name": "newHash",
          "type": "string"
        }
      ],
      "name": "updateLatestDoctorHash",
      "outputs": [],
      "stateMutability": "nonpayable",
      "type": "function"
    },
    {
      "inputs": [
        {
          "internalType": "address",
          "name": "doctorAddress",
          "type": "address"
        }
      ],
      "name": "getLatestDoctorHash",
      "outputs": [
        {
          "internalType": "string",
          "name": "",
          "type": "string"
        }
      ],
      "stateMutability": "view",
      "type": "function",
      "constant": true
    },
    {
      "inputs": [
        {
          "internalType": "address",
          "name": "patientAddress",
          "type": "address"
        },
        {
          "internalType": "string",
          "name": "newHash",
          "type": "string"
        }
      ],
      "name": "updateLatestPatientHash",
      "outputs": [],
      "stateMutability": "nonpayable",
      "type": "function"
    },
    {
      "inputs": [
        {
          "internalType": "address",
          "name": "patientAddress",
          "type": "address"
        }
      ],
      "name": "getLatestPatientHash",
      "outputs": [
        {
          "internalType": "string",
          "name": "",
          "type": "string"
        }
      ],
      "stateMutability": "view",
      "type": "function",
      "constant": true
    }
  ],
  "bytecode": "0x608060405234801561001057600080fd5b5061151a806100206000396000f3fe608060405234801561001057600080fd5b50600436106100b45760003560e01c8063913caaf211610071578063913caaf214610179578063a6bd9336146101a9578063d5efa42a146101d9578063f2511794146101f5578063f520eeaa14610226578063fb87cf9414610242576100b4565b80630be61700146100b957806316157f6c146100d55780633aaa5920146100f157806340bfbaa81461010f578063654ac6ca1461012b5780637b0f9a361461015b575b600080fd5b6100d360048036038101906100ce9190610dbf565b61025e565b005b6100ef60048036038101906100ea9190610e08565b61038a565b005b6100f9610432565b6040516101069190610fca565b60405180910390f35b61012960048036038101906101249190611024565b61050b565b005b6101456004803603810190610140919061110d565b6105de565b6040516101529190611184565b60405180910390f35b61016361067e565b6040516101709190610fca565b60405180910390f35b610193600480360381019061018e919061110d565b610757565b6040516101a09190611184565b60405180910390f35b6101c360048036038101906101be919061110d565b610828565b6040516101d09190611184565b60405180910390f35b6101f360048036038101906101ee91906111a6565b6108f9565b005b61020f600480360381019061020a9190611238565b610951565b60405161021d9291906112a3565b60405180910390f35b610240600480360381019061023b91906111a6565b610a3d565b005b61025c60048036038101906102579190610dbf565b610a95565b005b60005b600080549050811015610349576000808281548110610283576102826112d3565b5b90600052602060002001805461029890611331565b80601f01602080910402602001604051908101604052809291908181526020018280546102c490611331565b80156103115780601f106102e657610100808354040283529160200191610311565b820191906000526020600020905b8154815290600101906020018083116102f457829003601f168201915b50505050509050828051906020012081805190602001201415610335575050610387565b50808061034190611392565b915050610261565b50600081908060018154018082558091505060019003906000526020600020016000909190919091509080519060200190610385929190610bc2565b505b50565b600060405180604001604052808381526020016000151581525090506002836040516103b69190611417565b9081526020016040518091039020819080600181540180825580915050600190039060005260206000209060020201600090919091909150600082015181600001908051906020019061040a929190610bc2565b5060208201518160010160006101000a81548160ff0219169083151502179055505050505050565b60606000805480602002602001604051908101604052809291908181526020016000905b8282101561050257838290600052602060002001805461047590611331565b80601f01602080910402602001604051908101604052809291908181526020018280546104a190611331565b80156104ee5780601f106104c3576101008083540402835291602001916104ee565b820191906000526020600020905b8154815290600101906020018083116104d157829003601f168201915b505050505081526020019060010190610456565b50505050905090565b600060028460405161051d9190611417565b9081526020016040518091039020905060005b81805490508110156105d7578380519060200120828281548110610557576105566112d3565b5b906000526020600020906002020160000160405161057591906114cd565b604051809103902014156105c45782828281548110610597576105966112d3565b5b906000526020600020906002020160010160006101000a81548160ff0219169083151502179055506105d7565b80806105cf90611392565b915050610530565b5050505050565b600360205280600052604060002060009150905080546105fd90611331565b80601f016020809104026020016040519081016040528092919081815260200182805461062990611331565b80156106765780601f1061064b57610100808354040283529160200191610676565b820191906000526020600020905b81548152906001019060200180831161065957829003601f168201915b505050505081565b60606001805480602002602001604051908101604052809291908181526020016000905b8282101561074e5783829060005260206000200180546106c190611331565b80601f01602080910402602001604051908101604052809291908181526020018280546106ed90611331565b801561073a5780601f1061070f5761010080835404028352916020019161073a565b820191906000526020600020905b81548152906001019060200180831161071d57829003601f168201915b5050505050815260200190600101906106a2565b50505050905090565b6060600360008373ffffffffffffffffffffffffffffffffffffffff1673ffffffffffffffffffffffffffffffffffffffff16815260200190815260200160002080546107a390611331565b80601f01602080910402602001604051908101604052809291908181526020018280546107cf90611331565b801561081c5780601f106107f15761010080835404028352916020019161081c565b820191906000526020600020905b8154815290600101906020018083116107ff57829003601f168201915b50505050509050919050565b6060600360008373ffffffffffffffffffffffffffffffffffffffff1673ffffffffffffffffffffffffffffffffffffffff168152602001908152602001600020805461087490611331565b80601f01602080910402602001604051908101604052809291908181526020018280546108a090611331565b80156108ed5780601f106108c2576101008083540402835291602001916108ed565b820191906000526020600020905b8154815290600101906020018083116108d057829003601f168201915b50505050509050919050565b80600360008473ffffffffffffffffffffffffffffffffffffffff1673ffffffffffffffffffffffffffffffffffffffff168152602001908152602001600020908051906020019061094c929190610bc2565b505050565b600282805160208101820180518482526020830160208501208183528095505050505050818154811061098357600080fd5b9060005260206000209060020201600091509150508060000180546109a790611331565b80601f01602080910402602001604051908101604052809291908181526020018280546109d390611331565b8015610a205780601f106109f557610100808354040283529160200191610a20565b820191906000526020600020905b815481529060010190602001808311610a0357829003601f168201915b5050505050908060010160009054906101000a900460ff16905082565b80600360008473ffffffffffffffffffffffffffffffffffffffff1673ffffffffffffffffffffffffffffffffffffffff1681526020019081526020016000209080519060200190610a90929190610bc2565b505050565b60005b600180549050811015610b8157600060018281548110610abb57610aba6112d3565b5b906000526020600020018054610ad090611331565b80601f0160208091040260200160405190810160405280929190818152602001828054610afc90611331565b8015610b495780601f10610b1e57610100808354040283529160200191610b49565b820191906000526020600020905b815481529060010190602001808311610b2c57829003601f168201915b50505050509050828051906020012081805190602001201415610b6d575050610bbf565b508080610b7990611392565b915050610a98565b50600181908060018154018082558091505060019003906000526020600020016000909190919091509080519060200190610bbd929190610bc2565b505b50565b828054610bce90611331565b90600052602060002090601f016020900481019282610bf05760008555610c37565b82601f10610c0957805160ff1916838001178555610c37565b82800160010185558215610c37579182015b82811115610c36578251825591602001919060010190610c1b565b5b509050610c449190610c48565b5090565b5b80821115610c61576000816000905550600101610c49565b5090565b6000604051905090565b600080fd5b600080fd5b600080fd5b600080fd5b6000601f19601f8301169050919050565b7f4e487b7100000000000000000000000000000000000000000000000000000000600052604160045260246000fd5b610ccc82610c83565b810181811067ffffffffffffffff82111715610ceb57610cea610c94565b5b80604052505050565b6000610cfe610c65565b9050610d0a8282610cc3565b919050565b600067ffffffffffffffff821115610d2a57610d29610c94565b5b610d3382610c83565b9050602081019050919050565b82818337600083830152505050565b6000610d62610d5d84610d0f565b610cf4565b905082815260208101848484011115610d7e57610d7d610c7e565b5b610d89848285610d40565b509392505050565b600082601f830112610da657610da5610c79565b5b8135610db6848260208601610d4f565b91505092915050565b600060208284031215610dd557610dd4610c6f565b5b600082013567ffffffffffffffff811115610df357610df2610c74565b5b610dff84828501610d91565b91505092915050565b60008060408385031215610e1f57610e1e610c6f565b5b600083013567ffffffffffffffff811115610e3d57610e3c610c74565b5b610e4985828601610d91565b925050602083013567ffffffffffffffff811115610e6a57610e69610c74565b5b610e7685828601610d91565b9150509250929050565b600081519050919050565b600082825260208201905092915050565b6000819050602082019050919050565b600081519050919050565b600082825260208201905092915050565b60005b83811015610ee6578082015181840152602081019050610ecb565b83811115610ef5576000848401525b50505050565b6000610f0682610eac565b610f108185610eb7565b9350610f20818560208601610ec8565b610f2981610c83565b840191505092915050565b6000610f408383610efb565b905092915050565b6000602082019050919050565b6000610f6082610e80565b610f6a8185610e8b565b935083602082028501610f7c85610e9c565b8060005b85811015610fb85784840389528151610f998582610f34565b9450610fa483610f48565b925060208a01995050600181019050610f80565b50829750879550505050505092915050565b60006020820190508181036000830152610fe48184610f55565b905092915050565b60008115159050919050565b61100181610fec565b811461100c57600080fd5b50565b60008135905061101e81610ff8565b92915050565b60008060006060848603121561103d5761103c610c6f565b5b600084013567ffffffffffffffff81111561105b5761105a610c74565b5b61106786828701610d91565b935050602084013567ffffffffffffffff81111561108857611087610c74565b5b61109486828701610d91565b92505060406110a58682870161100f565b9150509250925092565b600073ffffffffffffffffffffffffffffffffffffffff82169050919050565b60006110da826110af565b9050919050565b6110ea816110cf565b81146110f557600080fd5b50565b600081359050611107816110e1565b92915050565b60006020828403121561112357611122610c6f565b5b6000611131848285016110f8565b91505092915050565b600082825260208201905092915050565b600061115682610eac565b611160818561113a565b9350611170818560208601610ec8565b61117981610c83565b840191505092915050565b6000602082019050818103600083015261119e818461114b565b905092915050565b600080604083850312156111bd576111bc610c6f565b5b60006111cb858286016110f8565b925050602083013567ffffffffffffffff8111156111ec576111eb610c74565b5b6111f885828601610d91565b9150509250929050565b6000819050919050565b61121581611202565b811461122057600080fd5b50565b6000813590506112328161120c565b92915050565b6000806040838503121561124f5761124e610c6f565b5b600083013567ffffffffffffffff81111561126d5761126c610c74565b5b61127985828601610d91565b925050602061128a85828601611223565b9150509250929050565b61129d81610fec565b82525050565b600060408201905081810360008301526112bd818561114b565b90506112cc6020830184611294565b9392505050565b7f4e487b7100000000000000000000000000000000000000000000000000000000600052603260045260246000fd5b7f4e487b7100000000000000000000000000000000000000000000000000000000600052602260045260246000fd5b6000600282049050600182168061134957607f821691505b6020821081141561135d5761135c611302565b5b50919050565b7f4e487b7100000000000000000000000000000000000000000000000000000000600052601160045260246000fd5b600061139d82611202565b91507fffffffffffffffffffffffffffffffffffffffffffffffffffffffffffffffff8214156113d0576113cf611363565b5b600182019050919050565b600081905092915050565b60006113f182610eac565b6113fb81856113db565b935061140b818560208601610ec8565b80840191505092915050565b600061142382846113e6565b915081905092915050565b600081905092915050565b60008190508160005260206000209050919050565b6000815461145b81611331565b611465818661142e565b945060018216600081146114805760018114611491576114c4565b60ff198316865281860193506114c4565b61149a85611439565b60005b838110156114bc5781548189015260018201915060208101905061149d565b838801955050505b50505092915050565b60006114d9828461144e565b91508190509291505056fea2646970667358221220e70064c5748991853c66a93dbe0d4ca5c6a156d60e7ec011717ddc1b80361a5b64736f6c634300080a0033",
  "immutableReferences": {},
  "source": "// SPDX-License-Identifier: MIT\npragma solidity ^0.8.10;\n\ncontract Cruds {\n    string[] doctors;\n    string[] patients;\n\n    function addDoctor(string memory doc_cid) public {\n        for (uint i = 0; i < doctors.length; i++) {\n            string memory x = doctors[i];\n            if (keccak256(bytes(x)) == keccak256(bytes(doc_cid))) return;\n        }\n        doctors.push(doc_cid);\n    }\n\n    function getDoctor() public view returns (string[] memory) {\n        return doctors;\n    }\n\n    function addPatient(string memory patient_cid) public {\n        for (uint i = 0; i < patients.length; i++) {\n            string memory x = patients[i];\n            if (keccak256(bytes(x)) == keccak256(bytes(patient_cid))) return;\n        }\n        patients.push(patient_cid);\n    }\n\n    function getPatient() public view returns (string[] memory) {\n        return patients;\n    }\n    struct AccessRequest {\n        string doctorCid; // Identifier of the doctor requesting access\n        bool approved; // Whether the patient has approved this request\n    }\n\n    // Maps patient CIDs to their access requests\n    mapping(string => AccessRequest[]) public accessRequests;\n\n    // Doctor requests access to a patient's data\n    function requestAccess(\n        string memory patientCid,\n        string memory doctorCid\n    ) public {\n        AccessRequest memory newRequest = AccessRequest(doctorCid, false);\n        accessRequests[patientCid].push(newRequest);\n    }\n\n    // Patient grants or denies access to a doctor\n    function respondToAccessRequest(\n        string memory patientCid,\n        string memory doctorCid,\n        bool approve\n    ) public {\n        AccessRequest[] storage requests = accessRequests[patientCid];\n        for (uint i = 0; i < requests.length; i++) {\n            if (\n                keccak256(bytes(requests[i].doctorCid)) ==\n                keccak256(bytes(doctorCid))\n            ) {\n                requests[i].approved = approve;\n                break;\n            }\n        }\n    }\n    // Maps an Ethereum address to the latest IPFS hash of the doctor's or patient's data\n    mapping(address => string) public latestHashes;\n\n    // Updates the latest hash for a doctor's data\n    function updateLatestDoctorHash(\n        address doctorAddress,\n        string memory newHash\n    ) public {\n        latestHashes[doctorAddress] = newHash;\n    }\n\n    // Retrieves the latest hash for a doctor's data\n    function getLatestDoctorHash(\n        address doctorAddress\n    ) public view returns (string memory) {\n        return latestHashes[doctorAddress];\n    }\n\n    // Updates the latest hash for a patient's data\n    function updateLatestPatientHash(\n        address patientAddress,\n        string memory newHash\n    ) public {\n        latestHashes[patientAddress] = newHash;\n    }\n\n    // Retrieves the latest hash for a patient's data\n    function getLatestPatientHash(\n        address patientAddress\n    ) public view returns (string memory) {\n        return latestHashes[patientAddress];\n    }\n}\n",
  "sourcePath": "D:\\Project\\Finnal Year Project\\backend\\contracts\\Cruds.sol",
  "compiler": {
    "name": "solc",
    "version": "0.8.10+commit.fc410830.Emscripten.clang"
  },
  "schemaVersion": "3.4.4",
  "updatedAt": "2025-07-02T03:15:01.584Z",
  "networkType": "ethereum",
  "devdoc": {
    "kind": "dev",
    "methods": {},
    "version": 1
  },
  "userdoc": {
    "kind": "user",
    "methods": {},
    "version": 1
  }
}